:020000040000FA
:02000000432893
:040002000034003492
:080008004E018C1E11284B0172
:10001000FF309D000B309C004001203098064E01BF
:100020008C120E1F09000E1340011A1052019F1E60
:10003000090040011A140900F0003030F1000A30C4
:100040007002031C2628F0004130F100700871078F
:1000500008004E010F1E2A2842019A000800F200F3
:10006000720E0F391C20292072080F391C202920FC
:100070000800F0004130700203184128303070024F
:1000800008000A3E08007E01B801CE0138150F3085
:10009000A400400198019A0192019401121594164E
:1000A0007D011430CC001530CB0042011B162430EA
:1000B0009E0090309D004B011E164F309F00FF3078
:1000C0009D000B309C009E17520183309F000B1740
:1000D0008B174E0196161817F6014E018F1EBA287F
:1000E00042011D1D75289908C6281908F7005330CC
:1000F0007702031D82284E30F608031D2920F601E1
:10010000F60A6D2807307605F60A0B008D288E2832
:1001100093289B28A028A428A928C6287708392036
:10012000F300F30E6D2877083920F30702307302CD
:100130000318C6286D2877083920F400F40E6D28BE
:1001400077083920F4076D2877083920F500F50E77
:100150006D2877083920F507730840010B00B52892
:100160007408A2007508A300C2287408A0007508CE
:10017000A100C22842019D1C6D284E3029201D126D
:100180001D166D284B302920F6016D284E30292090
:04019000F6016D28DF
:020000040001F9
:02000E009C173D
:02001000FF39B6
:020012009F3F0E
:02001400FF3FAC
:02001600FF3FAA
:00000001FF
