:020000040000FA
:02000000722963
:040002000034003492
:080008004E010E1F15280E1316
:100010004B01FF309D0074309C00FC30F905FA1C48
:1000200009009E178720FA1009008C120330790509
:100030004B010B003F28342823284001791F181258
:10004000F91F98120900F90A78089D0077089C00AA
:100050004001791A1816F91A98167A1C0900791FA6
:100060001812F91F98120900F90A76089D00750800
:100070009C00400179191816F91998160900F90A17
:100080004B0174089D0073089C0052019F1E4B2871
:1000900040011A15090040011A110900F000303022
:1000A000F1000A307002031C5828F0004130F100C2
:1000B0007008710708004E010F1E5C2842019A006B
:1000C0000800F200720E0F394E205B2072080F39C3
:1000D0004E205B200800F0004130700203187328A6
:1000E0003030700208000A3E080027082502031D70
:1000F0007D2826082402031902340318013404342D
:10010000F309F409F509F609F709F8090800F901F6
:10011000FA01FF30F300F400F500F600F700F800F4
:1001200040011812981240012008A4002108A500DF
:100130000030A7000030A6007520891CCB28791755
:1001400018162208A4002308A5000030A7000030DC
:10015000A6007520891CAF28F91798166F29220868
:10016000A4002308A5002030A7000030A6007520B9
:1001700089186F292208F3002308F400F9150030CC
:10018000F00022087002F5002030F0002308703BD8
:10019000F6007A1461292208A4002308A500003083
:1001A000A7000030A6007520891CF428F9179816BE
:1001B0002008A4002108A5002030A7000030A600D8
:1001C000752089186F292008F3002108F40079159B
:1001D0000030F00020087002F5002030F000210807
:1001E000703BF6007A1461292008A4002108A500BC
:1001F0002208A6002308A7007520891C1C292008B6
:10020000A4002108A5002030A7000030A60075201A
:1002100089186F292008F3002108F4007915F915D1
:100220000030F00020087002F5002030F0002108B6
:10023000703BF6007A146129091C40292208F3005A
:100240002308F400F9152008A4002108A500203097
:10025000A7000030A6007520891863292208200213
:10026000F5002308213BF60079160030F000200845
:100270007002F7002030F0002108703BF80061297F
:100280002008F3002108F40079152208A4002308AF
:10029000A5002030A7000030A6007520891863292A
:1002A00020082202F5002108233BF600F916003051
:1002B000F00022087002F7002030F0002308703BA5
:1002C000F800802008000030F00073087002F5008C
:1002D0002030F0007408703BF6007A1461294B015D
:1002E0009E1308007E01B801CE0138150F30A4001E
:1002F000400198019A019201940112159416141468
:100300007D011430CC001530CB0042011B16243087
:100310009E0090309D004B011E1643309F005201FD
:1003200083309F000B178B174E019616181740014C
:10033000AB014E018F1E1B2A42011D1DA8299908E1
:100340004001AC08031D292AAB08031D292A99295D
:1003500019084001AC0053302C02031DB7294E3060
:10036000AB08031D5B204001AB01AB0A99290730A4
:100370002B05AB0A0B00C229C729CC29D429D929BE
:10038000DD29E229AC08031D292AAB0199292C0893
:100390006B20A800A80E99292C086B20A807033011
:1003A00028020318292A99292C086B20AA00AA0ED2
:1003B00099292C086B20AA0799292C086B20A900E1
:1003C000A90E99292C086B20A90728080B00032ADD
:1003D000EB29FA14242AFA18292A2908A4002A0841
:1003E000A5002030A7000030A60075200918292A92
:1003F0002908A2002A08A30023086120400122083E
:1004000061204001242AFA18292A2908A4002A0870
:10041000A5002030A7000030A60075200918292A61
:100420002908A0002A08A100210861204001200815
:1004300061204001242A42019D1C99294E305B20F5
:1004400042011D121D1699294B305B204001AB0162
:0C04500099294E305B204001AB01992936
:020000040001F9
:02000E009C173D
:02001000FF39B6
:020012009F3F0E
:02001400FF3FAC
:02001600FF3FAA
:00000001FF
