:020000040000FA
:02000000FB28DB
:040002000034003492
:080008004E018C1E11284B0172
:10001000FF309D000B309C004001203098064E01BF
:100020008C120E1F09000E1340011A1052019F1E60
:10003000090040011A140900F0003030F1000A30C4
:100040007002031C2628F0004130F100700871078F
:1000500008004E010F1E2A2842019A000800F200F3
:10006000720E0F391C20292072080F391C202920FC
:100070000800F0004130700203184128303070024F
:1000800008000A3E080032083002031D4B283108E0
:100090002F02031902340318013404348B13400176
:1000A000AA01AB01AC01A601A701A801A901200882
:1000B000AF002108B0000030B2000030B100432092
:1000C000891C86282C142208AF002308B0000030B9
:1000D000B2000030B1004320891C7428AC142030D9
:1000E000A5000030A400F3282208A4002308A500DE
:1000F000AA140030F00022087002A6002030F000A0
:100100002308703BA7000130AE00F3282208AF009F
:100110002308B0000030B2000030B1004320891C39
:10012000A428AC142008A4002108A5002A1400303B
:10013000F00020087002A6002030F0002108703B7B
:10014000A7000130AE00F3282008AF002108B0005E
:100150002208B1002308B2004320891CC2282008CD
:10016000A4002108A5002A14AB140030F0002008D8
:100170007002A6002030F0002108703BA70001307B
:10018000AE00F328091CDB282208A4002308A500E0
:10019000AA1422082002A6002308213BA7002B1442
:1001A0000030F00020087002A8002030F000210884
:1001B000703BA900F1282008A4002108A5002A14FA
:1001C00020082202A6002108233BA700AB14003020
:1001D000F00022087002A8002030F0002308703BD5
:1001E000A9000230AE004B019D019C014E018C1212
:1001F0000E138B1708007E01B801CE0138150F30A1
:10020000A400400198019A019201940112159416DC
:100210007D011430CC001530CB0042011B16243078
:100220009E0090309D004B011E164F309F00FF3006
:100230009D000B309C009E17520183309F000B17CE
:100240008B174E0196161817F6014E018F1E922934
:1002500042011D1D33299908F708031D9E29F60840
:10026000031D9E2925291908F70053307702031D25
:1002700040294E30F608031D2920F601F60A2529EB
:1002800007307605F60A0B004B29502955295D29C0
:10029000622966296B29F708031D9E29F601252985
:1002A00077083920F300F30E252977083920F30762
:1002B0000230730203189E29252977083920F5009A
:1002C000F50E252977083920F507252977083920E3
:1002D000F400F40E252977083920F407730840014B
:1002E0000B0082297408AF007508B0002030B200FE
:1002F0000030B1004320091D9E297408A200750832
:10030000A3009A297408AF007508B0002030B2002D
:100310000030B1004320091D9E297408A000750813
:10032000A1009A2942019D1C25294E3029201D1229
:100330001D1625294B302920F60125294E3029206C
:04034000F601252974
:020000040001F9
:02000E009C173D
:02001000FF39B6
:020012009F3F0E
:02001400FF3FAC
:02001600FF3FAA
:00000001FF
