:020000040000FA
:0200000068296D
:040002000034003492
:080008004E010C1E11280E131D
:100010004B0174089D0073089C00FC017E01551083
:1000200009008C127C08FC0A4B010B0030282028A8
:100030009D019C0140017B1C1812FB1C98120900B9
:1000400078089D0077089C0040017A181816FA1865
:1000500098167D1C09007B1C1812FB1C98120900C5
:1000600076089D0075089C00400179181816F9184B
:1000700098160900F0003030F1000A307002031CBD
:100080004428F0004130F1007008710708004E016B
:100090000F1E482842019A000800F200720E0F3924
:1000A0003A20472072080F393A2047200800F00014
:1000B0004130700203185F283030700208000A3E99
:1000C000080027082502031D6928260824020319B1
:1000D0000234031801340434F309F409F509F6096C
:1000E000F709F80908008B134B019E13FD01F90174
:1000F000FA01FB01F301F401F501F601F701F80142
:100100006C2040012008A4002108A5000030A700B1
:100110000030A6006120891CB9287B14181622081B
:10012000A4002308A5000030A7000030A60061202D
:10013000891C9D28FB14981608002208A400230897
:10014000A5002030A7000030A60061208918080013
:100150002208F3002308F400F9140030F00022080C
:100160007002F5002030F0002308703BF6007D148B
:1001700052292208A4002308A5000030A70000305F
:10018000A6006120891CE228FB1498162008A40010
:100190002108A5002030A7000030A60061208918A2
:1001A00008002008F3002108F40079140030F00062
:1001B00020087002F5002030F0002108703BF600A6
:1001C0007D1452292008A4002108A5002208A600B9
:1001D0002308A7006120891C0D292008A4002108FC
:1001E000A5002030A7000030A600612089180A2948
:1001F0002008F3002108F4007914F9140030F0000D
:1002000020087002F5002030F0002108703BF60055
:100210007D145229181298120800091C312922084D
:10022000F3002308F400F9142008A4002108A50015
:100230002030A7000030A600612089185C29220820
:100240002002F5002308213BF6007A140030F0006C
:1002500020087002F7002030F0002108703BF80001
:1002600052292008F3002108F40079142208A40080
:100270002308A5002030A7000030A60061208918BF
:100280005C2920082202F5002108233BF600FA141D
:100290000030F00022087002F7002030F000230840
:1002A000703BF8006C204B019D019C019E174E0194
:1002B0008C120E138B1708000030F00073087002C8
:1002C000F5002030F0007408703BF6007D145229D0
:1002D0007E01B801CE0138150F30A400400198010D
:1002E0009A01920194011215941614147D01143090
:1002F000CC001530CB0042011B1624309E009030FC
:100300009D004B011E1643309F00520183309F0019
:100310007E0153147E0154140B174E0196161817C4
:1003200016164001AB0140012030A1000030A000B2
:100330002030A3000030A20073208B174E018F1EC7
:100340001C2A42011D1DAD2999084001AC08031D5E
:100350002A2AAB08031D2A2A9E2919084001AC004D
:1003600053302C02031DBC294E30AB08031D47201F
:100370004001AB01AB0A9E2907302B05AB0A0B00ED
:10038000C729CC29D129D929DE29E229E729AC08B6
:10039000031D2A2AAB019E292C085720A800A80E6D
:1003A0009E292C085720A8070330280203182A2A60
:1003B0009E292C085720AA00AA0E9E292C085720F7
:1003C000AA079E292C085720A900A90E9E292C08AF
:1003D0005720A90728080B00062AF0297320252A90
:1003E0002908A4002A08A5002030A7000030A60094
:1003F000612009182A2A2908A2002A08A300230834
:100400004D20400122084D204001252A2908A40042
:100410002A08A5002030A7000030A6006120091896
:100420002A2A2908A0002A08A10021084D204001FD
:1004300020084D204001252A42019D1C9E294E3056
:10044000472042011D121D169E294B3047204001B6
:0E045000AB019E294E3047204001AB019E2992
:020000040001F9
:02000E009C173D
:02001000FF39B6
:020012009F3F0E
:02001400FF3FAC
:02001600FF3FAA
:00000001FF
