:020000040000FA
:0200000066296F
:040002000034003492
:080008004E010E1F0F280E131C
:100010004B0174089D0073089C00FC0109008C12C0
:100020007C08FC0A4B010B002E281E289D019C0118
:1000300040017B1C1812FB1C9812090078089D00D7
:1000400077089C0040017A181816FA1898167D1C3B
:1000500009007B1C1812FB1C9812090076089D00F1
:1000600075089C00400179181816F91898160900AF
:10007000F0003030F1000A307002031C4228F0001A
:100080004130F1007008710708004E010F1E46282C
:1000900042019A000800F200720E0F393820452004
:1000A00072080F39382045200800F00041307002F6
:1000B00003185D283030700208000A3E0800270847
:1000C0002502031D67282608240203190234031899
:1000D00001340434F309F409F509F609F709F809BC
:1000E00008008B134B019E13FD01F901FA01FB017E
:1000F000F301F401F501F601F701F8016A2040016E
:100100002008A4002108A5000030A7000030A600A8
:100110005F20891CB7287B1418162208A400230826
:10012000A5000030A7000030A6005F20891C9B2896
:10013000FB14981608002208A4002308A50020300C
:10014000A7000030A6005F20891808002208F300ED
:100150002308F400F9140030F00022087002F500C2
:100160002030F0002308703BF6007D14502922084F
:10017000A4002308A5000030A7000030A6005F20DF
:10018000891CE028FB1498162008A4002108A5006B
:100190002030A7000030A6005F2089180800200842
:1001A000F3002108F40079140030F00020087002F8
:1001B000F5002030F0002108703BF6007D14502936
:1001C0002008A4002108A5002208A6002308A700F3
:1001D0005F20891C0B292008A4002108A5002030DD
:1001E000A7000030A6005F20891808292008F30026
:1001F0002108F4007914F9140030F000200870028E
:10020000F5002030F0002108703BF6007D145029E5
:10021000181298120800091C2F292208F30023083D
:10022000F400F9142008A4002108A5002030A7003C
:100230000030A6005F2089185A2922082002F50004
:100240002308213BF6007A140030F00020087002E9
:10025000F7002030F0002108703BF80050292008FA
:10026000F3002108F40079142208A4002308A50053
:100270002030A7000030A6005F2089185A292008E6
:100280002202F5002108233BF600FA140030F000AA
:1002900022087002F7002030F0002308703BF800BD
:1002A0006A204B019D019C019E174E018C120E137A
:1002B0008B1708000030F00073087002F500203042
:1002C000F0007408703BF6007D1450297E01B801DF
:1002D000CE0138150F30A400400198019A01920117
:1002E0009401121594167D011430CC001530CB000A
:1002F00042011B1624309E0090309D004B011E16BB
:1003000043309F00520183309F000B174E01961619
:1003100018174001AB0140012030A1000030A000BF
:100320002030A3000030A20071204E018F1E132A3E
:1003300042011D1DA42999084001AC08031D212A72
:10034000AB08031D212A952919084001AC00533040
:100350002C02031DB3294E30AB08031D452040017C
:10036000AB01AB0A952907302B05AB0A0B00BE2960
:10037000C329C829D029D529D929DE29AC08031DCC
:10038000212AAB0195292C085520A800A80E9529F3
:100390002C085520A807033028020318212A952984
:1003A0002C085520AA00AA0E95292C085520AA072A
:1003B00095292C085520A900A90E95292C0855200F
:1003C000A90728080B00FD29E72971201C2A290804
:1003D000A4002A08A5002030A7000030A6005F2056
:1003E0000918212A2908A2002A08A30023084B2063
:1003F000400122084B2040011C2A2908A4002A0899
:10040000A5002030A7000030A6005F200918212A8F
:100410002908A0002A08A10021084B20400120083B
:100420004B2040011C2A42019D1C95294E3045203D
:1004300042011D121D1695294B3045204001AB018C
:0C04400095294E3045204001AB01952964
:020000040001F9
:02000E009C173D
:02001000FF39B6
:020012009F3F0E
:02001400FF3FAC
:02001600FF3FAA
:00000001FF
