:020000040000FA
:020000007B295A
:040002000034003492
:080008004E010C1E12280E131C
:100010004B01FF309D0074309C00FC30F9057E01DF
:10002000551009008C12033079054B010B003C2858
:10003000312820284001791F1812F91F9812090051
:10004000F90A78089D0077089C004001791A181673
:10005000F91A98167A1C0900791F1812F91F9812BC
:100060000900F90A76089D0075089C00400179197D
:100070001816F91998160900F90A4B0174089D0021
:1000800073089C0052019F1E482840011A15090060
:1000900040011A110900F0003030F1000A307002FE
:1000A000031C5528F0004130F1007008710708006A
:1000B0004E010F1E592842019A000800F200720EEC
:1000C0000F394B20582072080F394B205820080058
:1000D000F0004130700203187028303070020800C0
:1000E0000A3E080027082502031D7A282608240254
:1000F00003190234031801340434F309F409F5092F
:10010000F609F709F80908008B134B019E1340010B
:1001100018129812F901FA01F301F401F501F60140
:10012000F701F8017D2040012008A4002108A50066
:100130000030A7000030A6007220891CCB28791758
:1001400018162208A4002308A5000030A7000030DC
:10015000A6007220891CAF28F917981608002208FB
:10016000A4002308A5002030A7000030A6007220BC
:10017000891808002208F3002308F400F91500305C
:10018000F00022087002F5002030F0002308703BD8
:10019000F6007A1461292208A4002308A500003083
:1001A000A7000030A6007220891CF428F9179816C1
:1001B0002008A4002108A5002030A7000030A600D8
:1001C0007220891808002008F3002108F40079152E
:1001D0000030F00020087002F5002030F000210807
:1001E000703BF6007A1461292008A4002108A500BC
:1001F0002208A6002308A7007220891C1C292008B9
:10020000A4002108A5002030A7000030A60072201D
:10021000891808002008F3002108F4007915F91561
:100220000030F00020087002F5002030F0002108B6
:10023000703BF6007A146129091C40292208F3005A
:100240002308F400F9152008A4002108A500203097
:10025000A7000030A600722089186F29220820020A
:10026000F5002308213BF60079160030F000200845
:100270007002F7002030F0002108703BF80061297F
:100280002008F3002108F40079152208A4002308AF
:10029000A5002030A7000030A600722089186F2921
:1002A00020082202F5002108233BF600F916003051
:1002B000F00022087002F7002030F0002308703BA5
:1002C000F8007D204B019D019C019E174E018C1270
:1002D0000E130C124E019616181716160800003051
:1002E000F00073087002F5002030F0007408703BD5
:1002F000F6007A1461297E01B801CE0138150F305D
:10030000A400400198019A019201940112159416DB
:1003100014147D011430CC001530CB0042011B16A3
:1003200024309E0090309D004B011E1643309F00EC
:10033000520183309F007E01531454140B178B1706
:100340004001AB014E018F1E262A42011D1DB1291D
:1003500099084001AC08031D342AAB08031D342A58
:10036000A22919084001AC0053302C02031DC029FA
:100370004E30AB08031D58204001AB01AB0AA22947
:1003800007302B05AB0A0B00CB29D029D529DD2955
:10039000E229E629EB29AC08031D342AAB01A22986
:1003A0002C086820A800A80EA2292C086820A807FD
:1003B000033028020318342AA2292C086820AA0036
:1003C000AA0EA2292C086820AA07A2292C086820B6
:1003D000A900A90EA2292C086820A90728080B004B
:1003E000102AFA29FA144E010C120E134E01161699
:1003F00018172F2A2908A4002A08A5002030A700D2
:100400000030A60072200918342A2908A2002A0800
:10041000A30023085E20400122085E2040012F2A0D
:100420002908A4002A08A5002030A7000030A60053
:1004300072200918342A2908A0002A08A1002108DE
:100440005E20400120085E2040012F2A42019D1CB1
:10045000A2294E30582042011D121D16A2294B30F0
:1004600058204001AB01A2294E3058204001AB0179
:02047000A229BF
:020000040001F9
:02000E009C173D
:02001000FF39B6
:020012009F3F0E
:02001400FF3FAC
:02001600FF3FAA
:00000001FF
