:020000040000FA
:02000000742961
:040002000034003492
:080008004E010C1E17280E1317
:100010007E0155104B01FF309D0074309C00FC3078
:10002000F905FA1C09009E178920FA1009008C12A4
:10003000033079054B010B00412836282528400163
:10004000791F1812F91F98120900F90A78089D0003
:1000500077089C004001791A1816F91A98167A1C2C
:100060000900791F1812F91F98120900F90A760879
:100070009D0075089C00400179191816F919981609
:100080000900F90A4B0174089D0073089C00520195
:100090009F1E4D2840011A15090040011A11090040
:1000A000F0003030F1000A307002031C5A28F000D2
:1000B0004130F1007008710708004E010F1E5E28E4
:1000C00042019A000800F200720E0F3950205D20A4
:1000D00072080F3950205D200800F0004130700296
:1000E000031875283030700208000A3E08002708FF
:1000F0002502031D7F282608240203190234031851
:1001000001340434F309F409F509F609F709F8098B
:100110000800F901FA01FF30F300F400F500F600E1
:10012000F700F80040011812981240012008A400BE
:100130002108A5000030A7000030A6007720891C08
:10014000CD28791718162208A4002308A50000302E
:10015000A7000030A6007720891CB128F91798164F
:1001600071292208A4002308A5002030A700003030
:10017000A6007720891871292208F3002308F400CB
:10018000F9150030F00022087002F5002030F00070
:100190002308703BF6007A1463292208A400230880
:1001A000A5000030A7000030A6007720891CF628A3
:1001B000F91798162008A4002108A5002030A700F0
:1001C0000030A6007720891871292008F300210843
:1001D000F40079150030F00020087002F50020309E
:1001E000F0002108703BF6007A1463292008A4006F
:1001F0002108A5002208A6002308A7007720891C53
:100200001E292008A4002108A5002030A7000030E6
:10021000A6007720891871292008F3002108F4002E
:100220007915F9150030F00020087002F500203033
:10023000F0002108703BF6007A146329091C42295A
:100240002208F3002308F400F9152008A40021086F
:10025000A5002030A7000030A60077208918652966
:1002600022082002F5002308213BF6007916003011
:10027000F00020087002F7002030F0002108703BE9
:10028000F80063292008F3002108F40079152208FA
:10029000A4002308A5002030A7000030A600772086
:1002A0008918652920082202F5002108233BF60061
:1002B000F9160030F00022087002F7002030F0003C
:1002C0002308703BF800822008000030F00073081B
:1002D0007002F5002030F0007408703BF6007A14CC
:1002E00063294B019E1308007E01B801CE01381529
:1002F0000F30A400400198019A0192019401121557
:10030000941614147D011430CC001530CB0042013A
:100310001B1624309E0090309D004B011E1643306A
:100320009F00520183309F007E01531454140B1719
:100330008B174E019616181716164001AB014E0189
:100340008F1E212A42011D1DAE2999084001AC08CB
:10035000031D2F2AAB08031D2F2A9F2919084001CE
:10036000AC0053302C02031DBD294E30AB08031DD9
:100370005D204001AB01AB0A9F2907302B05AB0A7A
:100380000B00C829CD29D229DA29DF29E329E82958
:10039000AC08031D2F2AAB019F292C086D20A80053
:1003A000A80E9F292C086D20A807033028020318E7
:1003B0002F2A9F292C086D20AA00AA0E9F292C08FD
:1003C0006D20AA079F292C086D20A900A90E9F293E
:1003D0002C086D20A90728080B00092AF129FA1416
:1003E0002A2AFA182F2A2908A4002A08A500203052
:1003F000A7000030A600772009182F2A2908A2009C
:100400002A08A3002308632040012208632040013A
:100410002A2AFA182F2A2908A4002A08A500203021
:10042000A7000030A600772009182F2A2908A0006D
:100430002A08A10021086320400120086320400110
:100440002A2A42019D1C9F294E305D2042011D1227
:100450001D169F294B305D204001AB019F294E3076
:080460005D204001AB019F2962
:020000040001F9
:02000E009C173D
:02001000FF39B6
:020012009F3F0E
:02001400FF3FAC
:02001600FF3FAA
:00000001FF
