:020000040000FA
:02000000432893
:040002000034003492
:080008004E018C1E11284B0172
:10001000FF309D000B309C004001203098064E01BF
:100020008C120E1F09000E1340011A1052019F1E60
:10003000090040011A140900F0003030F1000A30C4
:100040007002031C2628F0004130F100700871078F
:1000500008004E010F1E2A2842019A000800F200F3
:10006000720E0F391C20292072080F391C202920FC
:100070000800F0004130700203184128303070024F
:1000800008000A3E08007E01B801CE0138150F3085
:10009000A400400198019A0192019401121594164E
:1000A0007D011430CC001530CB0042011B162430EA
:1000B0009E0090309D004B011E164F309F00FF3078
:1000C0009D000B309C009E17520183309F000B1740
:1000D0008B174E0196161817730E0F391C20F4005B
:1000E00073080F391C20F50074083920F400F40E51
:0A00F000750839207407F30A6C2824
:020000040001F9
:02000E009C173D
:02001000FF39B6
:020012009F3F0E
:02001400FF3FAC
:02001600FF3FAA
:00000001FF
