:020000040000FA
:02000000512984
:040002000034003492
:080008004E010E1F0F280E131C
:100010004B0174089D0073089C00FC0109008C12C0
:100020007C08FC0A4B010B002E281E289D019C0118
:1000300040017B1C1812FB1C9812090078089D00D7
:1000400077089C0040017A181816FA189816FD1CBB
:1000500009007B1C1812FB1C9812090076089D00F1
:1000600075089C00400179181816F91898160900AF
:10007000F0003030F1000A307002031C4228F0001A
:100080004130F1007008710708004E010F1E46282C
:1000900042019A000800F200720E0F393820452004
:1000A00072080F39382045200800F00041307002F6
:1000B00003185D283030700208000A3E0800270847
:1000C0002502031D67282608240203190234031899
:1000D00001340434F309F409F509F609F709F809BC
:1000E00008008B134B019E13FD01F901FA01FB017E
:1000F000F301F401F501F601F701F8016A2040016E
:100100002008A4002108A5000030A7000030A600A8
:100110005F20891CAC287B1418162208A400230831
:10012000A5000030A7000030A6005F20891C9B2896
:10013000FB14981608002208F3002308F400F914B1
:100140000030F00022087002F5002030F000230893
:10015000703BF600FD143A292208A4002308A500EC
:100160000030A7000030A6005F20891CCA28FB14BD
:1001700098162008F3002108F40079140030F000EC
:1001800020087002F5002030F0002108703BF600D6
:10019000FD143A292008A4002108A5002208A60081
:1001A0002308A7005F20891CF5282008A400210847
:1001B000A5002030A7000030A6005F208918F22893
:1001C0002008F3002108F4007914F9140030F0003D
:1001D00020087002F5002030F0002108703BF60086
:1001E000FD143A29181298120800091C192922082E
:1001F000F3002308F400F9142008A4002108A50046
:100200002030A7000030A6005F208918442922086A
:100210002002F5002308213BF6007A140030F0009C
:1002200020087002F7002030F0002108703BF80031
:100230003A292008F3002108F40079142208A400C8
:100240002308A5002030A7000030A6005F208918F1
:10025000442920082202F5002108233BF600FA1465
:100260000030F00022087002F7002030F000230870
:10027000703BF8006A204B019D019C019E174E01C6
:100280008C120E138B1708000030F00073087002F8
:10029000F5002030F0007408703BF6000130FD00DE
:1002A0003A297E01B801CE0138150F30A400400173
:1002B00098019A0192019401121594167D0114304F
:1002C000CC001530CB0042011B1624309E0090302C
:1002D0009D004B011E1643309F00520183309F004A
:1002E0000B174E01961618174001AB014001203044
:1002F000A1000030A0002030A3000030A200712037
:100300004E018F1EF92942011D1D8F2999084001B8
:10031000AC08031D052AAB08031D052A802919080E
:100320004001AC0053302C02031D9D294E30AB0818
:10033000031D4520AB01AB0A802907302B05AB0A12
:100340000B00A829AD29B229BA29BF29C329C82978
:10035000AC08031D052AAB0180292C085520A800F4
:10036000A80E80292C085520A8070330280203185E
:10037000052A80292C085520AA00AA0E80292C08BD
:100380005520AA0780292C085520A900A90E8029EC
:100390002C085520A90728080B00E529D129712030
:1003A000012A2908A4002A08A5002030A70000304F
:1003B000A6005F20091D052A2908A2002A08A3001B
:1003C00023084B2022084B20012A2908A4002A08D0
:1003D000A5002030A7000030A6005F20091D052AD7
:1003E0002908A0002A08A10021084B2020084B2042
:1003F000012A42019D1C80294E3045201D121D16E8
:1004000080294B304520AB0180294E304520AB017F
:02041000802941
:020000040001F9
:02000E009C173D
:02001000FF39B6
:020012009F3F0E
:02001400FF3FAC
:02001600FF3FAA
:00000001FF
