:020000040000FA
:020000002F29A6
:040002000034003492
:080008004E018C1E11284B0172
:10001000FF309D000B309C004001203098064E01BF
:100020008C120E1F09000E1340011A1052019F1E60
:10003000090040011A140900F0003030F1000A30C4
:100040007002031C2628F0004130F100700871078F
:1000500008004E010F1E2A2842019A000800F200F3
:10006000720E0F391C20292072080F391C202920FC
:100070000800F0004130700203184128303070024F
:1000800008000A3E080028082602031D4B282708FE
:100090002502031902340318013404348B13F901C7
:1000A000FA01FB01F501F601F701F8014001200812
:1000B000A5002108A6000030A8000030A7004320BA
:1000C000891C86287B142208A5002308A60000307E
:1000D000A8000030A7004320891C7428FB1420309E
:1000E000F4000030F3001A292208F3002308F4007A
:1000F000F9140030F00022087002F5002030F00002
:100100002308703BF6000130A4001A292208A5003C
:100110002308A6000030A8000030A7004320891C57
:10012000A428FB142008F3002108F40079140030FF
:10013000F00020087002F5002030F0002108703B2C
:10014000F6000130A4001A292008A5002108A60005
:100150002208A7002308A8004320891CD3282008D0
:10016000A5002108A6002030A8000030A7004320E9
:100170008918CD282008F3002108F4007914F91417
:100180000030F00020087002F5002030F000210857
:10019000703BF6000130A4001A292030F400003032
:1001A000F300A4011A29091CF7282208F3002308E8
:1001B000F400F9142008A5002108A6002030A800AA
:1001C0000030A70043208918222922082002F500C8
:1001D0002308213BF6007A140030F000200870025A
:1001E000F7002030F0002108703BF80018292008A3
:1001F000F3002108F40079142208A5002308A600C2
:100200002030A8000030A7004320891822292008A8
:100210002202F5002108233BF600FA140030F0001A
:1002200022087002F7002030F0002308703BF8002D
:100230000230A4004B019D019C014E018C120E1353
:100240008B1708000030F00073087002F5002030B2
:10025000F0007408703BF6000130A4001A297E01FA
:10026000B801CE0138150F30A400400198019A0161
:1002700092019401121594167D011430CC001530B2
:10028000CB0042011B1624309E0090309D004B0194
:100290001E164F309F00FF309D000B309C009E17B4
:1002A000520183309F000B178B174E0196161817BB
:1002B0004001AC0140012030A1000030A0002030FE
:1002C000A3000030A2004E204E018F1EDD29420106
:1002D0001D1D732999084001AD08031DE929AC08CB
:1002E000031DE929642919084001AD0053302D028E
:1002F000031D81294E30AC08031D2920AC01AC0A36
:10030000642907302C05AC0A0B008C299129962909
:100310009E29A329A729AC29AD08031DE929AC0111
:1003200064292D083920A900A90E64292D08392037
:10033000A907033029020318E92964292D08392067
:10034000AB00AB0E64292D083920AB0764292D08BA
:100350003920AA00AA0E64292D083920AA072908E5
:100360000B00C929B5294E20E5292A08A5002B082C
:10037000A6002030A8000030A7004320091DE9296D
:100380002A08A2002B08A30023082F2022082F20D0
:10039000E5292A08A5002B08A6002030A800003077
:1003A000A7004320091DE9292A08A0002B08A10065
:1003B00021082F2020082F20E52942019D1C6429B7
:1003C0004E3029201D121D1664294B302920AC0106
:0A03D00064294E302920AC01642995
:020000040001F9
:02000E009C173D
:02001000FF39B6
:020012009F3F0E
:02001400FF3FAC
:02001600FF3FAA
:00000001FF
