:020000040000FA
:0200000076295F
:040002000034003492
:080008004E010E1F10280E131B
:100010004B01FF309D0074309C00FC30F905090055
:100020008C12033079054B010B003A282F281E282B
:100030004001791F1812F91F98120900F90A78086F
:100040009D0077089C004001791A1816F91A981635
:100050007A1C0900791F1812F91F98120900F90A71
:1000600076089D0075089C00400179191816F91949
:1000700098160900F90A4B0174089D0073089C004A
:1000800052019F1E462840011A15090040011A110D
:1000900009000900F0003030F1000A307002031C42
:1000A0005428F0004130F1007008710708004E013B
:1000B0000F1E582842019A000800F200720E0F39F4
:1000C0004A20572072080F394A2057200800F000B4
:1000D0004130700203186F283030700208000A3E69
:1000E000080027082502031D792826082402031981
:1000F0000234031801340434F309F409F509F6094C
:10010000F709F80908008B134B019E1340011812E0
:100110009812F901FA01F301F401F501F601F70172
:10012000F8017C2040012008A4002108A50000302F
:10013000A7000030A6007120891CCA28791718165C
:100140002208A4002308A5000030A7000030A60064
:100150007120891CAE28F917981608002208A400FF
:100160002308A5002030A7000030A60071208918C0
:1001700008002208F3002308F400F9150030F0000D
:1001800022087002F5002030F0002308703BF600D2
:100190007A1460292208A4002308A5000030A700D3
:1001A0000030A6007120891CF328F9179816200842
:1001B000A4002108A5002030A7000030A60071206F
:1001C000891808002008F3002108F4007915003090
:1001D000F00020087002F5002030F0002108703B8C
:1001E000F6007A1460292008A4002108A50022083E
:1001F000A6002308A7007120891C1B292008A40041
:100200002108A5002030A7000030A6007120891821
:1002100008002008F3002108F4007915F9150030D2
:10022000F00020087002F5002030F0002108703B3B
:10023000F6007A146029091C3F292208F3002308DC
:10024000F400F9152008A4002108A5002030A7001B
:100250000030A600712089186A2922082002F500C2
:100260002308213BF60079160030F00020087002C8
:10027000F7002030F0002108703BF80060292008CA
:10028000F3002108F40079152208A4002308A50032
:100290002030A7000030A600712089186A292008A4
:1002A0002202F5002108233BF600F9160030F00089
:1002B00022087002F7002030F0002308703BF8009D
:1002C0007C204B019D019C019E174E018C120E1348
:1002D0008B1708000030F00073087002F500203022
:1002E000F0007408703BF6007A1460297E01B801B2
:1002F000CE0138150F30A400400198019A019201F7
:1003000094011215941614147D011430CC0015308C
:10031000CB0042011B1624309E0090309D004B0103
:100320001E1643309F00520183309F000B174E0171
:10033000961618174001AB0140012030A100003093
:10034000A0002030A3000030A20083204E018F1EA9
:10035000242A42011D1DB52999084001AC08031D3E
:10036000322AAB08031D322AA62919084001AC0025
:1003700053302C02031DC4294E30AB08031D5720F7
:100380004001AB01AB0AA62907302B05AB0A0B00D5
:10039000CF29D429D929E129E629EA29EF29AC086E
:1003A000031D322AAB01A6292C086720A800A80E3D
:1003B000A6292C086720A807033028020318322A30
:1003C000A6292C086720AA00AA0EA6292C086720B7
:1003D000AA07A6292C086720A900A90EA6292C087F
:1003E0006720A90728080B000E2AF82983202D2A48
:1003F0002908A4002A08A5002030A7000030A60084
:1004000071200918322A2908A2002A08A30023080B
:100410005D20400122085D2040012D2A2908A4000A
:100420002A08A5002030A7000030A6007120091876
:10043000322A2908A0002A08A10021085D204001D5
:1004400020085D2040012D2A42019D1CA6294E3026
:10045000572042011D121D16A6294B30572040017E
:0E046000AB01A6294E3057204001AB01A62962
:020000040001F9
:02000E009C173D
:02001000FF39B6
:020012009F3F0E
:02001400FF3FAC
:02001600FF3FAA
:00000001FF
