:020000040000FA
:020000004F2887
:040002000034003492
:080008004E018C1E11284B0172
:10001000FF309D000B309C004001203098064E01BF
:100020008C120E1F09000E1340011A1052019F1E60
:10003000090040011A140900F0003030F1000A30C4
:100040007002031C2628F0004130F100700871078F
:1000500008004E010F1E2A2842019A000800F200F3
:10006000720E0F391C20292072080F391C202920FC
:100070000800F0004130700203184128303070024F
:1000800008000A3E080030082E02031D4B282F08E6
:100090002D020319023403180134043408007E01D0
:1000A000B801CE0138150F30A400400198019A0123
:1000B00092019401121594167D011430CC00153074
:1000C000CB0042011B1624309E0090309D004B0156
:1000D0001E164F309F00FF309D000B309C009E1776
:1000E000520183309F000B178B174E01961618177D
:1000F000F6014E018F1EE62842011D1D8728990832
:10010000F708031DF228F608031DF22879281908BC
:10011000F70053307702031D94284E30F608031D74
:100120002920F601F60A792807307605F60A0B0031
:100130009F28A428A928B128B628BA28BF28F708DC
:10014000031DF228F601792877083920F300F30E11
:10015000792877083920F307023073020318F22850
:10016000792877083920F500F50E792877083920A5
:10017000F507792877083920F400F40E79287708F4
:100180003920F407730840010B00D6287408AD002D
:100190007508AE002030B0000030AF004320091DCC
:1001A000F2287408A2007508A300EE287408AD00B8
:1001B0007508AE002030B0000030AF004320091DAC
:1001C000F2287408A0007508A100EE2842019D1CC9
:1001D00079284E3029201D121D1679284B302920F0
:0C01E000F60179284E302920F60179281C
:020000040001F9
:02000E009C173D
:02001000FF39B6
:020012009F3F0E
:02001400FF3FAC
:02001600FF3FAA
:00000001FF
