:020000040000FA
:020000004F2887
:040002000034003492
:080008004E018C1E11284B0172
:10001000FF309D000B309C004001203098064E01BF
:100020008C120E1F09000E1340011A1052019F1E60
:10003000090040011A140900F0003030F1000A30C4
:100040007002031C2628F0004130F100700871078F
:1000500008004E010F1E2A2842019A000800F200F3
:10006000720E0F391C20292072080F391C202920FC
:100070000800F0004130700203184128303070024F
:1000800008000A3E08002F082D02031D4B283008E7
:100090002E020319023403180134043408007E01CF
:1000A000B801CE0138150F30A400400198019A0123
:1000B00092019401121594167D011430CC00153074
:1000C000CB0042011B1624309E0090309D004B0156
:1000D0001E164F309F00FF309D000B309C009E1776
:1000E000520183309F000B178B174E01961618177D
:1000F000F60140011230AD003430AE004330AF00A5
:100100002130B00043200000AD01AE01AF01B001CD
:100110004330A0002130A1002008AD002108AE002E
:100120001230AF003430B00043200000AD01AE010A
:10013000AF01B0014330AD002130AE004330AF001D
:100140002130B00043200000AD01AE01AF01B0018D
:100150004330A2002030A3002008AD002108AE00EB
:100160002208AF002308B00043200000AD01AE011B
:10017000AF01B0014330AD002130AE004330AF00DD
:100180002230B000432000004E018F1E1129420191
:100190001D1DCC2899081D291908F7005330770236
:1001A000031DD9284E30F608031D2920F601F60A52
:1001B000C42807307605F60A0B00E428E528EA286B
:1001C000F228F728FB2800291D2977083920F30099
:1001D000F30EC42877083920F3070230730203189E
:1001E0001D29C42877083920F400F40EC4287708A4
:1001F0003920F407C42877083920F500F50EC42803
:1002000077083920F507730840010B000C297408A2
:10021000A2007508A30019297408A0007508A100A0
:10022000192942019D1CC4284E3029201D121D167B
:10023000C4284B302920F601C4284E302920F6016D
:02024000C428D0
:020000040001F9
:02000E009C173D
:02001000FF39B6
:020012009F3F0E
:02001400FF3FAC
:02001600FF3FAA
:00000001FF
