:020000040000FA
:0200000067296E
:040002000034003492
:080008004E010C1E11280E131D
:100010004B0174089D0073089C00FC017E01551083
:1000200009008C127C08FC0A4B010B002F281F28AA
:10003000FC0340017B1C1812FB1C98120900780875
:100040009D0077089C0040017A181816FA18981637
:100050007D1C09007B1C1812FB1C981209007608F5
:100060009D0075089C00400179181816F91898161B
:100070000900F0003030F1000A307002031C432800
:10008000F0004130F1007008710708004E010F1EAA
:10009000472842019A000800F200720E0F393920F9
:1000A000462072080F39392046200800F000413000
:1000B000700203185E283030700208000A3E080003
:1000C00027082502031D6828260824020319023484
:1000D000031801340434F309F409F509F609F709A2
:1000E000F80908008B134B019E1340011812981257
:1000F000FD01F901FA01FB01F301F401F501F6013B
:10010000F701F8016B2040012008A4002108A50098
:100110000030A7000030A6006020891CBB287B149B
:1001200018162208A4002308A5000030A7000030FC
:10013000A6006020891C9F28FB149816080022083E
:10014000A4002308A5002030A7000030A6006020EE
:10015000891808002208F3002308F400F91400307D
:10016000F00022087002F5002030F0002308703BF8
:10017000F6007D1451292208A4002308A5000030B0
:10018000A7000030A6006020891CE428FB14981604
:100190002008A4002108A5002030A7000030A600F8
:1001A0006020891808002008F3002108F400791461
:1001B0000030F00020087002F5002030F000210827
:1001C000703BF6007D1451292008A4002108A500E9
:1001D0002208A6002308A7006020891C0C292008FB
:1001E000A4002108A5002030A7000030A600602050
:1001F000891808002008F3002108F4007914F91484
:100200000030F00020087002F5002030F0002108D6
:10021000703BF6007D145129091C30292208F30097
:100220002308F400F9142008A4002108A5002030B8
:10023000A7000030A600602089185B292208200250
:10024000F5002308213BF6007A140030F000200866
:100250007002F7002030F0002108703BF8005129AF
:100260002008F3002108F40079142208A4002308D0
:10027000A5002030A7000030A600602089185B2967
:1002800020082202F5002108233BF600FA14003072
:10029000F00022087002F7002030F0002308703BC5
:1002A000F8006B204B019D019C019E174E018C12A2
:1002B0000E138B1708000030F00073087002F50071
:1002C0002030F0007408703BF6007D1451297E0147
:1002D000B801CE0138150F30A400400198019A01F1
:1002E000920194011215941614147D011430CC005F
:1002F0001530CB0042011B1624309E0090309D002B
:100300004B011E1643309F00520183309F007E0137
:1003100053147E0154140B174E0196161817161617
:100320004001AB0140012030A1000030A00020308E
:10033000A3000030A20072204E018F1E1A2A420133
:100340001D1DAB2999084001AC08031D282AAB08E4
:10035000031D282A9C2919084001AC0053302C02A7
:10036000031DBA294E30AB08031D46204001AB01E6
:10037000AB0A9C2907302B05AB0A0B00C529CA29FB
:10038000CF29D729DC29E029E529AC08031D282A33
:10039000AB019C292C085620A800A80E9C292C08EB
:1003A0005620A807033028020318282A9C292C0865
:1003B0005620AA00AA0E9C292C085620AA079C2980
:1003C0002C085620A900A90E9C292C085620A90704
:1003D00028080B00042AEE297220232A2908A400E9
:1003E0002A08A5002030A7000030A60060200918C8
:1003F000282A2908A2002A08A30023084C2040012B
:1004000022084C204001232A2908A4002A08A5001C
:100410002030A7000030A60060200918282A2908EB
:10042000A0002A08A10021084C20400120084C20EF
:100430004001232A42019D1C9C294E304620420146
:100440001D121D169C294B3046204001AB019C29F2
:0A0450004E3046204001AB019C290C
:020000040001F9
:02000E009C173D
:02001000FF39B6
:020012009F3F0E
:02001400FF3FAC
:02001600FF3FAA
:00000001FF
